{
  "contractName": "MoneyManagement",
  "abi": [
    {
      "payable": true,
      "stateMutability": "payable",
      "type": "fallback"
    },
    {
      "anonymous": false,
      "inputs": [
        {
          "indexed": false,
          "name": "from",
          "type": "address"
        },
        {
          "indexed": false,
          "name": "amount",
          "type": "uint256"
        }
      ],
      "name": "PaymentReceived",
      "type": "event",
      "signature": "0x6ef95f06320e7a25a04a175ca677b7052bdd97131872c2192525a629f51be770"
    },
    {
      "constant": false,
      "inputs": [
        {
          "name": "acc",
          "type": "address"
        },
        {
          "name": "name",
          "type": "string"
        },
        {
          "name": "per",
          "type": "uint256"
        }
      ],
      "name": "addAccount",
      "outputs": [
        {
          "name": "s",
          "type": "string"
        },
        {
          "name": "p",
          "type": "uint256"
        }
      ],
      "payable": false,
      "stateMutability": "nonpayable",
      "type": "function",
      "signature": "0xf235bfa4"
    },
    {
      "constant": false,
      "inputs": [
        {
          "name": "name",
          "type": "string"
        },
        {
          "name": "per",
          "type": "uint256"
        }
      ],
      "name": "editPercentage",
      "outputs": [
        {
          "name": "",
          "type": "uint256"
        }
      ],
      "payable": false,
      "stateMutability": "nonpayable",
      "type": "function",
      "signature": "0xe467b3b4"
    },
    {
      "constant": false,
      "inputs": [
        {
          "name": "name",
          "type": "string"
        }
      ],
      "name": "deleteAccount",
      "outputs": [],
      "payable": false,
      "stateMutability": "nonpayable",
      "type": "function",
      "signature": "0xd5e363f9"
    },
    {
      "constant": false,
      "inputs": [
        {
          "name": "preName",
          "type": "string"
        },
        {
          "name": "newName",
          "type": "string"
        }
      ],
      "name": "editName",
      "outputs": [
        {
          "name": "",
          "type": "string"
        }
      ],
      "payable": false,
      "stateMutability": "nonpayable",
      "type": "function",
      "signature": "0xe3d430c4"
    },
    {
      "constant": true,
      "inputs": [],
      "name": "getNamesLength",
      "outputs": [
        {
          "name": "",
          "type": "uint256"
        }
      ],
      "payable": false,
      "stateMutability": "view",
      "type": "function",
      "signature": "0x35f66908"
    },
    {
      "constant": true,
      "inputs": [
        {
          "name": "i",
          "type": "uint256"
        }
      ],
      "name": "getNames",
      "outputs": [
        {
          "name": "",
          "type": "string"
        }
      ],
      "payable": false,
      "stateMutability": "view",
      "type": "function",
      "signature": "0x5718e17b"
    },
    {
      "constant": true,
      "inputs": [
        {
          "name": "i",
          "type": "uint256"
        }
      ],
      "name": "getAddress",
      "outputs": [
        {
          "name": "",
          "type": "address"
        }
      ],
      "payable": false,
      "stateMutability": "view",
      "type": "function",
      "signature": "0xb93f9b0a"
    },
    {
      "constant": true,
      "inputs": [
        {
          "name": "i",
          "type": "uint256"
        }
      ],
      "name": "getPercentage",
      "outputs": [
        {
          "name": "",
          "type": "uint256"
        }
      ],
      "payable": false,
      "stateMutability": "view",
      "type": "function",
      "signature": "0xe161c3bf"
    },
    {
      "constant": true,
      "inputs": [
        {
          "name": "i",
          "type": "uint256"
        }
      ],
      "name": "getDetails",
      "outputs": [
        {
          "name": "",
          "type": "string"
        },
        {
          "name": "",
          "type": "address"
        },
        {
          "name": "",
          "type": "uint256"
        }
      ],
      "payable": false,
      "stateMutability": "view",
      "type": "function",
      "signature": "0xb93a89f7"
    }
  ],
  "bytecode": "0x6080604052606460035534801561001557600080fd5b50611788806100256000396000f3fe6080604052600436106100985763ffffffff7c010000000000000000000000000000000000000000000000000000000060003504166335f66908811461020e5780635718e17b14610235578063b93a89f7146102d4578063b93f9b0a14610396578063d5e363f9146103dc578063e161c3bf14610491578063e3d430c4146104bb578063e467b3b4146105f5578063f235bfa4146106aa575b6040805133815234602082015281517f6ef95f06320e7a25a04a175ca677b7052bdd97131872c2192525a629f51be770929181900390910190a160025460005b8181101561020a576000806002838154811015156100f257fe5b9060005260206000200160405180828054600181600116156101000203166002900480156101575780601f10610135576101008083540402835291820191610157565b820191906000526020600020905b815481529060010190602001808311610143575b5050928352505060408051918290036020908101832054600160a060020a031660008181526001909252918120549193506064349092029190910491839183156108fc02918491818181858888f193505050501580156101bb573d6000803e3d6000fd5b5060408051600160a060020a03841681526020810183905281517f6ef95f06320e7a25a04a175ca677b7052bdd97131872c2192525a629f51be770929181900390910190a150506001016100d8565b5050005b34801561021a57600080fd5b506102236107ee565b60408051918252519081900360200190f35b34801561024157600080fd5b5061025f6004803603602081101561025857600080fd5b50356107f5565b6040805160208082528351818301528351919283929083019185019080838360005b83811015610299578181015183820152602001610281565b50505050905090810190601f1680156102c65780820380516001836020036101000a031916815260200191505b509250505060405180910390f35b3480156102e057600080fd5b506102fe600480360360208110156102f757600080fd5b50356108c0565b604051808060200184600160a060020a0316600160a060020a03168152602001838152602001828103825285818151815260200191508051906020019080838360005b83811015610359578181015183820152602001610341565b50505050905090810190601f1680156103865780820380516001836020036101000a031916815260200191505b5094505050505060405180910390f35b3480156103a257600080fd5b506103c0600480360360208110156103b957600080fd5b5035610adf565b60408051600160a060020a039092168252519081900360200190f35b3480156103e857600080fd5b5061048f600480360360208110156103ff57600080fd5b81019060208101813564010000000081111561041a57600080fd5b82018360208201111561042c57600080fd5b8035906020019184600183028401116401000000008311171561044e57600080fd5b91908080601f016020809104026020016040519081016040528093929190818152602001838380828437600092019190915250929550610b9a945050505050565b005b34801561049d57600080fd5b50610223600480360360208110156104b457600080fd5b5035610e09565b3480156104c757600080fd5b5061025f600480360360408110156104de57600080fd5b8101906020810181356401000000008111156104f957600080fd5b82018360208201111561050b57600080fd5b8035906020019184600183028401116401000000008311171561052d57600080fd5b91908080601f016020809104026020016040519081016040528093929190818152602001838380828437600092019190915250929594936020810193503591505064010000000081111561058057600080fd5b82018360208201111561059257600080fd5b803590602001918460018302840111640100000000831117156105b457600080fd5b91908080601f016020809104026020016040519081016040528093929190818152602001838380828437600092019190915250929550610ed6945050505050565b34801561060157600080fd5b506102236004803603604081101561061857600080fd5b81019060208101813564010000000081111561063357600080fd5b82018360208201111561064557600080fd5b8035906020019184600183028401116401000000008311171561066757600080fd5b91908080601f01602080910402602001604051908101604052809392919081815260200183838082843760009201919091525092955050913592506111d5915050565b3480156106b657600080fd5b5061076f600480360360608110156106cd57600080fd5b600160a060020a0382351691908101906040810160208201356401000000008111156106f857600080fd5b82018360208201111561070a57600080fd5b8035906020019184600183028401116401000000008311171561072c57600080fd5b91908080601f0160208091040260200160405190810160405280939291908181526020018383808284376000920191909152509295505091359250611389915050565b6040518080602001838152602001828103825284818151815260200191508051906020019080838360005b838110156107b257818101518382015260200161079a565b50505050905090810190601f1680156107df5780820380516001836020036101000a031916815260200191505b50935050505060405180910390f35b6002545b90565b606060008211801561080957506002548211155b151561081457600080fd5b60028054600019840190811061082657fe5b600091825260209182902001805460408051601f60026000196101006001871615020190941693909304928301859004850281018501909152818152928301828280156108b45780601f10610889576101008083540402835291602001916108b4565b820191906000526020600020905b81548152906001019060200180831161089757829003601f168201915b50505050509050919050565b60606000806000841180156108d757506002548411155b15156108e257600080fd5b6002805460001986019081106108f457fe5b90600052602060002001600060026001870381548110151561091257fe5b9060005260206000200160405180828054600181600116156101000203166002900480156109775780601f10610955576101008083540402835291820191610977565b820191906000526020600020905b815481529060010190602001808311610963575b505092835250506040519081900360200190205460028054600160a060020a03909216916001916000918291906000198b019081106109b257fe5b906000526020600020016040518082805460018160011615610100020316600290048015610a175780601f106109f5576101008083540402835291820191610a17565b820191906000526020600020905b815481529060010190602001808311610a03575b50509283525050604080516020928190038301902054600160a060020a0316835282820193909352908201600020548454835160026101006001841615026000190190921691909104601f810184900484028201840190945283815290929091859190830182828015610acb5780601f10610aa057610100808354040283529160200191610acb565b820191906000526020600020905b815481529060010190602001808311610aae57829003601f168201915b50939b959a50939850939650505050505050565b60008082118015610af257506002548211155b1515610afd57600080fd5b6000600260018403815481101515610b1157fe5b906000526020600020016040518082805460018160011615610100020316600290048015610b765780601f10610b54576101008083540402835291820191610b76565b820191906000526020600020905b815481529060010190602001808311610b62575b5050928352505060405190819003602001902054600160a060020a03169050919050565b60006001600080846040518082805190602001908083835b60208310610bd15780518252601f199092019160209182019101610bb2565b51815160209384036101000a60001901801990921691161790529201948552506040805194859003820190942054600160a060020a031685528481019590955250509081016000908120546003805482019055915185519294506001939192839287929182918401908083835b60208310610c5d5780518252601f199092019160209182019101610c3e565b51815160209384036101000a60001901801990921691161790529201948552506040805194859003820190942054600160a060020a031685528481019590955250509081016000908120819055905184519192859282918401908083835b60208310610cda5780518252601f199092019160209182019101610cbb565b51815160209384036101000a60001901801990921691161790529201948552506040519384900301909220805473ffffffffffffffffffffffffffffffffffffffff1916905550600090505b600254811015610d6457610d52600282815481101515610d4257fe5b906000526020600020018461149a565b15610d5c57610d64565b600101610d26565b60025460001901811015610dc857600280546000198101908110610d8457fe5b90600052602060002001600282815481101515610d9d57fe5b906000526020600020019080546001816001161561010002031660029004610dc69291906115bc565b505b600280546000198101908110610dda57fe5b906000526020600020016000610df09190611641565b6002805490610e03906000198301611688565b50505050565b60008082118015610e1c57506002548211155b1515610e2757600080fd5b6001600080600260018603815481101515610e3e57fe5b906000526020600020016040518082805460018160011615610100020316600290048015610ea35780601f10610e81576101008083540402835291820191610ea3565b820191906000526020600020905b815481529060010190602001808311610e8f575b50509283525050604080516020928190038301902054600160a060020a0316835290820192909252016000205492915050565b6002546060906000905b80821015610f1f57610f0a600283815481101515610efa57fe5b906000526020600020018661149a565b15610f1457610f1f565b600190910190610ee0565b8082101561116d5783600283815481101515610f3757fe5b906000526020600020019080519060200190610f549291906116b1565b506000856040518082805190602001908083835b60208310610f875780518252601f199092019160209182019101610f68565b51815160209384036101000a60001901801990921691161790529201948552506040519384900381018420548851600160a060020a039091169460009450899350918291908401908083835b60208310610ff25780518252601f199092019160209182019101610fd3565b51815160209384036101000a60001901801990921691161790529201948552506040519384900381018420805473ffffffffffffffffffffffffffffffffffffffff1916600160a060020a0396909616959095179094555050865160009288929182918401908083835b6020831061107b5780518252601f19909201916020918201910161105c565b51815160209384036101000a60001901801990921691161790529201948552506040519384900301909220805473ffffffffffffffffffffffffffffffffffffffff19169055505060028054839081106110d157fe5b600091825260209182902001805460408051601f600260001961010060018716150201909416939093049283018590048502810185019091528181529283018282801561115f5780601f106111345761010080835404028352916020019161115f565b820191906000526020600020905b81548152906001019060200180831161114257829003601f168201915b5050505050925050506111cf565b606060405190810160405280602481526020017f4163636f756e7420776974682070726f7669646564206e616d65206e6f74206681526020017f6f756e6400000000000000000000000000000000000000000000000000000000815250925050505b92915050565b600080600160a060020a03166000846040518082805190602001908083835b602083106112135780518252601f1990920191602091820191016111f4565b51815160209384036101000a6000190180199092169116179052920194855250604051938490030190922054600160a060020a03169290921415915061125a905057600080fd5b6001600080856040518082805190602001908083835b6020831061128f5780518252601f199092019160209182019101611270565b51815160209384036101000a60001901801990921691161790529201948552506040805194859003820190942054600160a060020a0316855284019490945250016000908120546003805490910190558311905080156112f0575060035482105b15156112fb57600080fd5b816001600080866040518082805190602001908083835b602083106113315780518252601f199092019160209182019101611312565b51815160209384036101000a60001901801990921691161790529201948552506040805194859003820190942054600160a060020a031685528401949094525001600020919091555050600380548290039055919050565b60606000808311801561139e57506003548311155b15156113a957600080fd5b846000856040518082805190602001908083835b602083106113dc5780518252601f1990920191602091820191016113bd565b51815160209384036101000a600019018019909216911617905292019485525060408051948590038201909420805473ffffffffffffffffffffffffffffffffffffffff1916600160a060020a03968716179055938916600090815260018086529381208890556003805489900390556002805494850180825591528851909461148d947f405787fa12a823e0f2b7631cc41b3ba8828b3321ca811111fa75cd3aa3bb5ace019350890191506116b1565b5093959294509192505050565b805182546000918491849160026000196101006001851615020190921691909104146114cb576000925050506111cf565b60005b8254600260001961010060018416150201909116048110156115b05781818151811015156114f857fe5b90602001015160f860020a900460f860020a027effffffffffffffffffffffffffffffffffffffffffffffffffffffffffffff19168382815460018160011615610100020316600290048110151561154c57fe5b81546001161561156b5790600052602060002090602091828204019190065b9054901a60f860020a027fff0000000000000000000000000000000000000000000000000000000000000016146115a857600093505050506111cf565b6001016114ce565b50600195945050505050565b828054600181600116156101000203166002900490600052602060002090601f016020900481019282601f106115f55780548555611631565b8280016001018555821561163157600052602060002091601f016020900482015b82811115611631578254825591600101919060010190611616565b5061163d92915061171f565b5090565b50805460018160011615610100020316600290046000825580601f106116675750611685565b601f016020900490600052602060002090810190611685919061171f565b50565b8154818355818111156116ac576000838152602090206116ac918101908301611739565b505050565b828054600181600116156101000203166002900490600052602060002090601f016020900481019282601f106116f257805160ff1916838001178555611631565b82800160010185558215611631579182015b82811115611631578251825591602001919060010190611704565b6107f291905b8082111561163d5760008155600101611725565b6107f291905b8082111561163d5760006117538282611641565b5060010161173f56fea165627a7a72305820105317024ea4c9926b387ae1119cc458f88a081f0b116d1469f6bfeb065e63e80029",
  "source": "pragma solidity ^0.5.0;\ncontract MoneyManagement{\n    mapping (string=>address payable) accounts;\n    mapping(address=>uint256) percentage;\n    string[] names;\n    uint remaning=100;\n    \n    function () payable external{\n        emit PaymentReceived(msg.sender, msg.value);\n        uint namesLength=names.length;\n        for(uint i=0;i<namesLength;i++){\n            address payable acc=accounts[names[i]];\n            uint amount= msg.value*percentage[acc]/100;\n            acc.transfer(amount);\n            emit PaymentReceived(acc, amount);\n        }\n    }\n    event PaymentReceived(address from, uint amount);\n    function addAccount(address acc,string memory name,uint per )public returns(string memory s,uint p){\n        require(per>0&&per<=remaning);\n        accounts[name]=address(uint160(acc));\n        percentage[acc]=per;\n        remaning-=per;\n        names.push(name);\n        s=name;\n        p=per;\n        return(s,p);\n    }\n    function editPercentage(string memory name,uint256 per)public returns(uint256){\n        require(accounts[name]!=address(0));\n        remaning+=percentage[accounts[name]];\n        require(per>0&&per<remaning);\n        percentage[accounts[name]]=per;\n        remaning-=per;\n        return per;\n    }\n    function deleteAccount(string memory name)public{\n        uint per=percentage[accounts[name]];\n        remaning+=per;\n        delete percentage[accounts[name]];\n        delete accounts[name];\n        uint i;\n        for(i=0;i<names.length;i++){\n            if(stringsEqual(names[i],name)){\n                break;\n            }\n        }\n        if(i<names.length-1){\n            names[i]=names[names.length-1];\n        }\n        delete names[names.length-1];\n        names.length--;\n    }\n    function editName(string memory preName,string memory newName)public returns(string memory){\n        uint i;\n        uint namesLength=names.length;\n        for(i=0;i<namesLength;i++){\n            if(stringsEqual(names[i],preName)){\n                break;\n            }\n        }\n        if(i<namesLength){\n            names[i]=newName;\n            accounts[newName]=accounts[preName];\n            delete accounts[preName];\n            return names[i];\n        }\n        else{\n            return \"Account with provided name not found\";\n        }\n    }\n    function getNamesLength()public view returns(uint){\n        return names.length;\n    }\n    function getNames(uint i)public view returns(string memory){\n        require(i>0&&i<=names.length);\n        return names[i-1];\n    }\n    function getAddress(uint i)public view returns(address){\n        require(i>0&&i<=names.length);\n        return (accounts[names[i-1]]);\n    }\n    function getPercentage(uint i)public view returns(uint){\n        require(i>0&&i<=names.length);\n        return (percentage[accounts[names[i-1]]]);\n    }\n    function getDetails(uint i)public view returns(string memory,address,uint){\n        require(i>0&&i<=names.length);\n        return (names[i-1],accounts[names[i-1]],percentage[accounts[names[i-1]]]);\n    }\n    function stringsEqual(string storage _a, string memory _b) view internal returns (bool) {\n        bytes storage a = bytes(_a);\n        bytes memory b = bytes(_b);\n        if (a.length != b.length)\n        return false;\n        for (uint i = 0; i < a.length; i ++)\n            if (a[i] != b[i])\n                return false;\n            return true;\n    }\n}\n",
  "sourcePath": "/home/spideypool/Desktop/BlockChain/Money_Management/contracts/MoneyManagement.sol",
  "compiler": {
    "name": "solc",
    "version": "0.5.0+commit.1d4f565a.Emscripten.clang"
  },
  "schemaVersion": "3.0.2",
  "updatedAt": "2019-09-19T17:34:42.091Z",
  "devdoc": {
    "methods": {}
  },
  "userdoc": {
    "methods": {}
  }
}